:100000000C9476000C9493000C9493000C94930041
:100010000C9493000C9493000C9493000C94930014
:100020000C9493000C9493000C9493000C94930004
:100030000C9493000C9493000C9493000C949300F4
:100040000C9493000C9493000C94B5000C949300C2
:100050000C9493000C9493000C9493000C949300D4
:100060000C9493000C9493000C9493000C949300C4
:100070000C9493000C9493000C949300002124277B
:100080002A002225282B0020232629020202020210
:10009000020202040404040404040403030303032B
:1000A0000303030101010101010101010204081020
:1000B0002040800102040810204080010204081042
:1000C000204080804020100804020100000001024E
:1000D000000000000000000403070600000000000C
:1000E00000000000000000000000000011241FBEFE
:1000F000CFEFD8E0DEBFCDBF11E0A0E0B1E0E6EF8A
:10010000F3E002C005900D92A030B107D9F711E0DD
:10011000A0E0B1E001C01D92AC30B107E1F70E9450
:10012000F2010C94F9010C9400001F931FE0812F41
:1001300061E00E94A70168EE73E080E090E00E9419
:100140002501812F60E00E94A7011F5F153179F71B
:100150001F9108951F931FE0812F61E00E94890184
:100160001F5F1531C9F71F9108951F920F920FB6A7
:100170000F9211242F938F939F93AF93BF938091EE
:10018000000190910101A0910201B091030101963B
:10019000A11DB11D8093000190930101A093020164
:1001A000B09303018091040190910501A091060193
:1001B000B09107018050904CAF4FBF4F8093040126
:1001C00090930501A0930601B093070127C0809189
:1001D000040190910501A0910601B09107018052A0
:1001E0009E44A040B0408093040190930501A093E9
:1001F0000601B09307018091080190910901A09137
:100200000A01B0910B010196A11DB11D8093080157
:1002100090930901A0930A01B0930B01809104010E
:1002200090910501A0910601B091070181529E4471
:10023000A040B04060F6BF91AF919F918F912F91F8
:100240000F900FBE0F901F901895EF92FF920F9393
:100250001F937B018C018FB7F89440910801509156
:10026000090160910A0170910B018FBF2FB7F894BB
:100270008091080190910901A0910A01B0910B01B0
:100280002FBF841B950BA60BB70BE816F9060A07C0
:100290001B0760F71F910F91FF90EF9008957894DE
:1002A00084B5826084BD84B5816084BD85B582607B
:1002B00085BD85B5816085BDEEE6F0E08081816019
:1002C0008083E1E8F0E080818260808380818160CA
:1002D0008083E0E8F0E0808181608083E1EBF0E002
:1002E000808184608083E0EBF0E0808181608083A6
:1002F000EAE7F0E08081846080838081826080838F
:100300008081816080838081806880831092C100B9
:100310000895282F30E0C90185559F4FFC01949125
:1003200025573F4FF9018491882381F0E82FF0E0B1
:10033000E458FF4FE491F0E0662329F48081909522
:100340008923808308958081892B80830895482F95
:1003500050E0CA0185539F4FFC012491CA01855585
:100360009F4FFC01949145575F4FFA01349133231D
:10037000C1F1222331F1213019F484B58F7704C003
:10038000223021F484B58F7D84BD1BC0233021F43D
:10039000809180008F7705C0243031F480918000F7
:1003A0008F7D809380000DC0263021F48091B000B5
:1003B0008F7705C0273029F48091B0008F7D80931E
:1003C000B000E32FF0E0EF57FF4FE491F0E0662339
:1003D00029F4808190958923808308958081892BD9
:1003E000808308950E944F010E94AA000E949500F8
:1003F000FDCFF894FFCFFFFFFFFFFFFFFFFFFFFFE1
:100400006CE071E00E94EE032C9880EB8EBD0DB481
:1004100007FEFDCF8EB58FEF8EBD0DB407FEFDCF6D
:100420004EB52C9A50E060E070E086E194E022E066
:1004300030E00E94F104812F1F910F9108950F93D6
:100440001F93DF93CF9300D0CDB7DEB72C9880EB0E
:100450008EBD0DB407FEFDCF8EB58FEF8EBD0DB4F2
:1004600007FEFDCF8EB52C9A982F807C09F456C0DC
:100470001A821982BE016F5F7F4F96FF02C080E033
:1004800001C081E048E151E00E943501082F10E0F1
:100490008FE061E00E94870362E370E080E090E01B
:1004A0000E9405038FE060E00E94870362E370E032
:1004B00080E090E00E9405038FE061E00E948703E6
:1004C00062E370E080E090E00E9405038FE060E06E
:1004D0000E948703A8E1B1E0E1E2F1E020E030E032
:1004E00006C09D9181919817C9F42F5F3F4F201747
:1004F0003107B8F362E370E080E090E00E9405030A
:100500008FE061E00E94870366E970E080E090E0A0
:100510000E9405038FE060E00E9487030F900F9018
:10052000CF91DF911F910F9108951F920F920FB6F7
:100530000F9211242F938F939F93AF93BF9380912A
:100540000A0490910B04A0910C04B0910D04019643
:10055000A11DB11D80930A0490930B04A0930C0479
:10056000B0930D0480910E0490910F04A09110049B
:10057000B09111048050904CAF4FBF4F80930E0448
:1005800090930F04A0931004B093110427C080919E
:100590000E0490910F04A0911004B09111048052A8
:1005A0009E44A040B04080930E0490930F04A0930B
:1005B0001004B09311048091120490911304A0913F
:1005C0001404B09115040196A11DB11D809312046D
:1005D00090931304A0931404B093150480910E0417
:1005E00090910F04A0911004B091110481529E4487
:1005F000A040B04060F6BF91AF919F918F912F9135
:100600000F900FBE0F901F901895EF92FF920F93CF
:100610001F937B018C018FB7F89440911204509185
:10062000130460911404709115048FBF2FB7F894D0
:100630008091120490911304A0911404B0911504B8
:100640002FBF841B950BA60BB70BE816F9060A07FC
:100650001B0760F71F910F91FF90EF90089578941A
:1006600084B5826084BD84B5816084BD85B58260B7
:1006700085BD85B5816085BDEEE6F0E08081816055
:100680008083E1E8F0E08081826080838081816006
:100690008083E0E8F0E0808181608083E1EBF0E03E
:1006A000808184608083E0EBF0E0808181608083E2
:1006B000EAE7F0E0808184608083808182608083CB
:1006C0008081816080838081806880831092C100F6
:1006D0000895282F30E0C90185559F4FFC01949162
:1006E00025573F4FF9018491882381F0E82FF0E0EE
:1006F000E458FF4FE491F0E0662329F4808190955F
:100700008923808308958081892B80830895482FD1
:1007100050E0CA0185539F4FFC012491CA018555C1
:100720009F4FFC01949145575F4FFA013491332359
:10073000C1F1222331F1213019F484B58F7704C03F
:10074000223021F484B58F7D84BD1BC0233021F479
:10075000809180008F7705C0243031F48091800033
:100760008F7D809380000DC0263021F48091B000F1
:100770008F7705C0273029F48091B0008F7D80935A
:10078000B000E32FF0E0EF57FF4FE491F0E0662375
:1007900029F4808190958923808308958081892B15
:1007A0008083089588E094E0909317048093160462
:1007B0001092180490931A048093190481E0809396
:1007C0001B040895FC0182810E94FC0408950E948C
:1007D0002F030E9419010E941F02FDCF0F931F9348
:1007E000CF93DF938C01EB0109C02196D801ED91E5
:1007F000FC910190F081E02DC80109956881662384
:10080000A1F7DF91CF911F910F9108950F931F933F
:100810008C01DC01ED91FC910190F081E02D6DE007
:100820000995D801ED91FC910190F081E02DC8016E
:100830006AE009951F910F9108952F923F924F9270
:100840005F926F927F928F929F92AF92BF92CF9260
:10085000DF92EF92FF920F931F93DF93CF93CDB769
:10086000DEB7A0970FB6F894DEBF0FBECDBF1C0158
:100870006A017B01411551056105710549F4DC01EF
:10088000ED91FC910190F081E02D60E3099554C059
:10089000882499245401422E55246624772401E0AB
:1008A00010E00C0F1D1F080D191DC701B601A30193
:1008B00092010E949905F80160830894811C911CA3
:1008C000A11CB11CC701B601A30192010E949905A8
:1008D000C901DA016C017D01C114D104E104F10404
:1008E000F1F681E0E82EF12CEC0EFD1EE80CF91C6F
:1008F0003E010894611C711CD501C4010197A10936
:10090000B1096C01C818D90814C0F601EE0DFF1D1D
:1009100060816A3010F4605D01C0695CD101ED91C5
:10092000FC910190F081E02DC10109950894E10846
:10093000F1086E147F0449F7A0960FB6F894DEBF55
:100940000FBECDBFCF91DF911F910F91FF90EF9020
:10095000DF90CF90BF90AF909F908F907F906F90DF
:100960005F904F903F902F900895EF92FF920F93DA
:100970001F93CF93DF93EC017A018B0177FF0FC0B8
:10098000E881F9810190F081E02D6DE209951095E3
:100990000095F094E094E11CF11C011D111DCE01A5
:1009A000B801A7012AE00E941D04DF91CF911F9199
:1009B0000F91FF90EF900895DC012115310541F46E
:1009C000ED91FC910190F081E02D642F099508953F
:1009D0002A30310519F40E94B50408950E941D04BF
:1009E00008950F931F938C010E94DC04C8010E949C
:1009F00006041F910F910895882339F48091C00057
:100A000085FFFCCF6093C60008958091C80085FFE4
:100A1000FCCF6093CE0008951F920F920FB60F92F5
:100A200011242F933F934F935F936F937F938F93F3
:100A30009F93AF93BF93EF93FF934091C600E091D4
:100A40001C04F0911D04CF01019660E870E00E9443
:100A500086059C0180912004909121042817390774
:100A600039F0EC5DFB4F408330931D0420931C0450
:100A7000FF91EF91BF91AF919F918F917F916F9176
:100A80005F914F913F912F910F900FBE0F901F904C
:100A900018951F920F920FB60F9211242F933F9328
:100AA0004F935F936F937F938F939F93AF93BF9376
:100AB000EF93FF934091CE00E0911E04F0911F044C
:100AC000CF01019660E870E00E9486059C0180914C
:100AD0002204909123042817390739F0EC55FB4F75
:100AE000408330931F0420931E04FF91EF91BF9128
:100AF000AF919F918F917F916F915F914F913F91B6
:100B00002F910F900FBE0F901F90189597FB092EF5
:100B100007260AD077FD04D02ED006D000201AF484
:100B2000709561957F4F0895F6F7909581959F4F49
:100B30000895A1E21A2EAA1BBB1BFD010DC0AA1F1E
:100B4000BB1FEE1FFF1FA217B307E407F50720F036
:100B5000A21BB30BE40BF50B661F771F881F991FB1
:100B60001A9469F760957095809590959B01AC01FA
:100B7000BD01CF010895AA1BBB1B51E107C0AA1FED
:100B8000BB1FA617B70710F0A61BB70B881F991F2E
:100B90005A95A9F780959095BC01CD010895EE0F67
:100BA000FF1F0590F491E02D0994F894FFCF537541
:100BB0006D6D657279000930620052585F5374613F
:100BC0007475733A2000202020202020202000412E
:100BD000424344454647480049443A200020446186
:100BE00074613A20002000204C656E203A00536565
:100BF0006E64696E67204D6573736167652E204C66
:100C0000656E3A200030005175657279696E672013
:100C10004D5050542030303031004D505054205100
:100C200075657279205375636365737300426174EF
:100C30007465727920566F6C74616765204C6576B7
:100C4000656C205265616368656420466C61673A33
:100C500020004F76657254656D7020466C61673A6E
:100C600020004E6F2043686172676520466C6167A3
:100C70003A2000556E646572566F6C7420466C6144
:100C8000673A2000566F6C7461676520496E3A20A0
:100C90000043757272656E7420496E3A2000566F7B
:100CA0006C74616765204F75743A200054656D70EF
:100CB0003A200044656275673A20004D6F6E697492
:100CC0006F72204D6F646500456E746572204465D7
:100CD00073697265642049443A2000416464726516
:100CE000737320746F207175657279202868657838
:100CF000293A20005175657279696E672030780055
:100D00000D0A526573756C743A2030620053657435
:100D100074696E6773204D656E750053656C65630D
:100D2000742066726F6D2074686520666F6C6C6FDE
:100D300077696E67206F7074696F6E7300312E2053
:100D400053756D6D65727900322E204368616E6750
:100D5000652053657474696E6700332E20436861A3
:100D60006E676520494400342E20517565727920E4
:100D7000526567697374657200352E2053656E6421
:100D8000205265736574004572726F72202D204980
:100D90006E76616C6964204F7074696F6E004944AF
:100DA00020746F207573653A203078004D65737339
:100DB00061676520746F2073656E643A20000D0AC8
:100DC00053656E64696E67204D6573736167653A3C
:100DD00020004D61696E204D656E7500312E2053E7
:100DE000656E642043414E204D65737361676500F5
:100DF000322E20526561642043414E204275666662
:100E0000657200332E204D6F6E69746F72204D6FC6
:100E1000646500342E2053657474696E6773003501
:100E20002E204B6E6F62204D6F646500424650432A
:100E300054524C090054585254534354524C00439A
:100E4000414E53544154090043414E4354524C09BE
:100E50000054454309005245430900434E463309B7
:100E600000434E46320900434E4631090043414E8D
:100E7000494E5445090043414E494E5446090045E8
:100E8000464C470900545842304354524C00545881
:100E900042314354524C00545842324354524C0055
:100EA000525842304354524C0052584231435452EB
:100EB0004C0000000000E203FFFFFFFFFFFFFFFF09
:100EC000FFFFFFFFFFFFFFFFFFFFFFFFFFFFFFFF32
:100ED000FFFFFFFFFFFFFFFFFFFFFFFFFFFFFFFF22
:100EE000FFFFFFFFFFFFFFFFFFFFFFFFFFFFFFFF12
:100EF000FFFFFFFFFFFFFFFFFFFFFFFFFFFFFFFF02
:100F0000A1F7DF91CF911F910F9108950F931F9338
:100F10008C01DC01ED91FC910190F081E02D6DE000
:100F20000995D801ED91FC910190F081E02DC80167
:100F30006AE009951F910F9108950F931F938C01FB
:100F40000E946E07C8010E9486071F910F910895A5
:100F50002F923F924F925F926F927F928F929F92C9
:100F6000AF92BF92CF92DF92EF92FF920F931F93B7
:100F7000DF93CF93CDB7DEB7A0970FB6F894DEBF5F
:100F80000FBECDBF1C016A017B01411551056105F2
:100F9000710549F4DC01ED91FC910190F081E02DA7
:100FA00060E3099554C0882499245401422E5524A5
:100FB0006624772401E010E00C0F1D1F080D191D99
:100FC000C701B601A30192010E941F0BF8016083C3
:100FD0000894811C911CA11CB11CC701B601A3017E
:100FE00092010E941F0BC901DA016C017D01C1143D
:100FF000D104E104F104F1F681E0E82EF12CEC0ECD
:10100000FD1EE80CF91C3E010894611C711CD50101
:10101000C4010197A109B1096C01C818D90814C00D
:10102000F601EE0DFF1D60816A3010F4605D01C0B5
:10103000695CD101ED91FC910190F081E02DC1013D
:1010400009950894E108F1086E147F0449F7A09609
:101050000FB6F894DEBF0FBECDBFCF91DF911F91C9
:101060000F91FF90EF90DF90CF90BF90AF909F9047
:101070008F907F906F905F904F903F902F9008954A
:10108000EF92FF920F931F93CF93DF93EC017A01BE
:101090008B0177FF0FC0E881F9810190F081E02D8D
:1010A0006DE2099510950095F094E094E11CF11C17
:1010B000011D111DCE01B801A7012AE00E94A80759
:1010C000DF91CF911F910F91FF90EF900895DC0178
:1010D0002115310541F4ED91FC910190F081E02D55
:1010E000642F099508952A30310519F40E944008AB
:1010F00008950E94A80708950F931F938C010E94E2
:101100006708C8010E9486071F910F910895EF920A
:10111000FF920F931F937A018B018823F1F5CB0186
:10112000BA0122E030E040E050E00E94410B205341
:101130003D4E4C4E5F4FCA01B901A80197010E9474
:10114000410BC901DA010197A109B109292F3A2FF1
:101150004B2F552747FD5A950196A11DB11D209390
:10116000C50081508093C4001092C0001092C1004D
:101170001092C2008091C10080618093C100809173
:10118000C10088608093C1008091C1008068809315
:10119000C10086E08093C2003DC0CB01BA0122E0CD
:1011A00030E040E050E00E94410B20533D4E4C4E59
:1011B0005F4FCA01B901A80197010E94410BC90103
:1011C000DA010197A109B109292F3A2F4B2F552791
:1011D00047FD5A950196A11DB11D2093CD00815068
:1011E0008093CC001092C8001092C9001092CA00DF
:1011F0008091C90080618093C9008091C900886096
:101200008093C9008091C90080688093C90086E0FE
:101210008093CA001F910F91FF90EF90089588234B
:1012200039F48091C00085FFFCCF6093C60008951B
:101230008091C80085FFFCCF6093CE000895E82F11
:10124000F0E0EE0FFF1FDF01AC51BC4F8D919C9180
:1012500080589F4FE851FC4F20813181821B930BB6
:1012600060E870E00E940C0B0895CF93DF93A82FE5
:10127000B0E0FD01EE0FFF1FEF01C851DC4F4881C8
:101280005981EC51FC4F808191818417950719F4A5
:101290002FEF3FEF13C0B695BA2FAA27B795A795A2
:1012A000A40FB51FA451BC4F2C91CA01019660E850
:1012B00070E00E940C0B9983888330E0C901DF91B4
:1012C000CF910895E82FF0E0EE0FFF1FDF01A85146
:1012D000BC4F8D919C91EC51FC4F9183808308957C
:1012E0001F920F920FB60F9211242F933F934F939B
:1012F0005F936F937F938F939F93AF93BF93EF937E
:10130000FF934091C600E091E403F091E503CF0123
:10131000019660E870E00E940C0B9C018091E8034C
:101320009091E9032817390739F0E451FC4F4083C5
:101330003093E5032093E403FF91EF91BF91AF91C8
:101340009F918F917F916F915F914F913F912F91DD
:101350000F900FBE0F901F9018951F920F920FB60F
:101360000F9211242F933F934F935F936F937F932B
:101370008F939F93AF93BF93EF93FF934091CE00D2
:10138000E091E603F091E703CF01019660E870E099
:101390000E940C0B9C018091EA039091EB032817AB
:1013A000390739F0E459FB4F40833093E70320932A
:1013B000E603FF91EF91BF91AF919F918F917F9144
:1013C0006F915F914F913F912F910F900FBE0F90B2
:1013D0001F9018950CD0E6C0DED040F0D5D030F08C
:1013E00021F45F3F19F0C7C0511110C1CAC0EBD042
:1013F00098F39923C9F35523B1F3951B550BBB27DC
:10140000AA2762177307840738F09F5F5F4F220F88
:10141000331F441FAA1FA9F333D00E2E3AF0E0E881
:1014200030D091505040E695001CCAF729D0FE2FCD
:1014300027D0660F771F881FBB1F2617370748075F
:10144000AB07B0E809F0BB0B802DBF01FF27935815
:101450005F4F2AF09E3F510568F08DC0D7C05F3FB7
:10146000ECF3983EDCF3869577956795B795F795FD
:101470009F5FC9F7880F911D9695879597F90895F5
:10148000E1E0660F771F881FBB1F62177307840791
:10149000BA0720F0621B730B840BBA0BEE1F88F7A0
:1014A000E095089598D088F09F5790F0B92F99272C
:1014B000B751A0F0D1F0660F771F881F991F1AF05F
:1014C000BA95C9F712C0B13081F09FD0B1E008954C
:1014D0009CC0672F782F8827B85F39F0B93FCCF3CD
:1014E000869577956795B395D9F73EF49095809555
:1014F000709561957F4F8F4F9F4F0895E89409C075
:1015000097FB3EF490958095709561957F4F8F4F36
:101510009F4F9923A9F0F92F96E9BB279395F6954C
:10152000879577956795B795F111F8CFFAF4BB0FCA
:1015300011F460FF1BC06F5F7F4F8F4F9F4F16C02E
:10154000882311F096E911C0772321F09EE8872FB8
:10155000762F05C0662371F096E8862F70E060E074
:101560002AF09A95660F771F881FDAF7880F9695ED
:10157000879597F9089597F99F6780E870E060E094
:1015800008959FEF80EC089500240A94161617061C
:1015900018060906089500240A9412161306140664
:1015A00005060895092E0394000C11F4882352F0C7
:1015B000BB0F40F4BF2B11F460FF04C06F5F7F4F7F
:1015C0008F4F9F4F089557FD9058440F551F59F066
:1015D0005F3F71F04795880F97FB991F61F09F3F20
:1015E00079F087950895121613061406551FF2CF49
:1015F0004695F1DF08C0161617061806991FF1CF99
:1016000086957105610508940895E894BB276627BF
:101610007727CB0197F9089597FB092E07260AD063
:1016200077FD04D049D006D000201AF4709561955A
:101630007F4F0895F6F7909581959F4F0895A1E209
:101640001A2EAA1BBB1BFD010DC0AA1FBB1FEE1F3C
:10165000FF1FA217B307E407F50720F0A21BB30B87
:10166000E40BF50B661F771F881F991F1A9469F703
:1016700060957095809590959B01AC01BD01CF015F
:10168000089597FB092E05260ED057FD04D0D7DF0D
:101690000AD0001C38F450954095309521953F4F65
:1016A0004F4F5F4F0895F6F790958095709561952F
:1016B0007F4F8F4F9F4F0895AA1BBB1B51E107C05F
:1016C000AA1FBB1FA617B70710F0A61BB70B881FD2
:1016D000991F5A95A9F780959095BC01CD01089561
:1016E000EE0FFF1F0590F491E02D0994F894FFCFC1
:1016F00053657474696E67203132354B687A207295
:1017000061746520402032304D687A2043727973CD
:1017100074616C0053656E64696E67204D65737308
:101720006167652E204C656E3A200020446174612B
:101730003A2000300044656275673A200053756DA9
:101740006D657279000930620052585F537461749C
:1017500075733A20002020202020202020004944BA
:101760003A20002000204C656E203A004D6F6E69D3
:10177000746F72204D6F646500456E74657220440D
:101780006573697265642049443A2000416464725B
:1017900065737320746F2071756572792028686590
:1017A00078293A20005175657279696E6720307822
:1017B000000D0A526573756C743A203062005365EF
:1017C0007474696E6773204D656E750053656C6542
:1017D00063742066726F6D2074686520666F6C6C30
:1017E0006F77696E67206F7074696F6E7300312E4A
:1017F0002053756D6D65727900322E204368616EDD
:1018000067652053657474696E6700332E204368E2
:10181000616E676520494400342E205175657279E8
:1018200020526567697374657200352E2053656EAA
:1018300064205265736574004572726F72202D20AA
:10184000496E76616C6964204F7074696F6E0049EF
:101850004420746F207573653A203078004D6573AD
:101860007361676520746F2073656E643A20000DA4
:101870000A53656E64696E67204D657373616765B1
:101880003A20004D61696E204D656E7500312E2045
:1018900053656E642043414E204D657373616765E7
:1018A00000322E20526561642043414E204275660D
:1018B00066657200332E204D6F6E69746F72204D15
:1018C0006F646500342E2053657474696E6773000D
:1018D000352E204B6E6F62204D6F6465005350496A
:1018E000205374617274005472616E736665722065
:1018F0006F6E63650053504920656E640042465028
:101900004354524C090054585254534354524C00BF
:1019100043414E53544154090043414E4354524CA9
:10192000090054454309005245430900434E4633DC
:101930000900434E46320900434E463109004341F7
:101940004E494E5445090043414E494E5446090004
:1019500045464C470900545842304354524C0054B9
:101960005842314354524C00545842324354524C22
:1019700000525842304354524C0052584231435462
:10198000524C0011000D03160320032903320337C4
:10199000033C03420348034E035703600366036F8F
:1019A00003780381038A030C0D0E0F1C1D28292ABE
:1019B0002B2C2D304050607001000000004E0700BD
:1019C000FFFFFFFFFFFFFFFFFFFFFFFFFFFFFFFF27
:1019D000FFFFFFFFFFFFFFFFFFFFFFFFFFFFFFFF17
:1019E000FFFFFFFFFFFFFFFFFFFFFFFFFFFFFFFF07
:1019F000FFFFFFFFFFFFFFFFFFFFFFFFFFFFFFFFF7
:107800000C943E3C0C945B3C0C945B3C0C945B3CB9
:107810000C945B3C0C945B3C0C945B3C0C945B3C8C
:107820000C945B3C0C945B3C0C945B3C0C945B3C7C
:107830000C945B3C0C945B3C0C945B3C0C945B3C6C
:107840000C945B3C0C945B3C0C945B3C0C945B3C5C
:107850000C945B3C0C945B3C0C945B3C0C945B3C4C
:107860000C945B3C0C945B3C0C945B3C0C945B3C3C
:107870000C945B3C0C945B3C0C945B3C11241FBE51
:10788000CFEFD8E0DEBFCDBF11E0A0E0B1E0E4EB88
:10789000FFE702C005900D92A030B107D9F711E0C3
:1078A000A0E0B1E001C01D92A938B107E1F70E9444
:1078B000B13D0C94D83F0C94003C982F8091C000AF
:1078C00085FFFCCF9093C60008951F93282F99271A
:1078D00087FD9095807F9070959587959595879574
:1078E00095958795959587958A3084F0982F995A24
:1078F000822F8F708A3084F4182F105D892F0E9498
:107900005D3C812F0E945D3C1F910895982F905DF2
:10791000822F8F708A3084F3182F195A892F0E9472
:107920005D3C812F0E945D3C1F910895EF92FF9274
:107930000F931F932898EE24FF2487018091C000A5
:1079400087FD17C00894E11CF11C011D111D81E089
:10795000E81689E0F8068DE3080780E0180770F361
:10796000E0910101F091020109958091C00087FF2B
:10797000E9CF289A8091C6001F910F91FF90EF9058
:1079800008950F931F930E94963C182F0E945D3C10
:107990000E94963C082F0E945D3C11366CF01755F2
:1079A00001367CF400330CF000531295107F802FC9
:1079B000810F1F910F910895103394F310530136E6
:1079C0008CF307551295107F802F810F1F910F9117
:1079D0000895282F882351F090E08091C00087FF00
:1079E000FCCF8091C6009F5F9217B8F308951F9354
:1079F000182F0E94963C803281F0809100018F5FA9
:107A000080930001853011F01F910895E0910101EC
:107A1000F091020109951F91089584E10E945D3C57
:107A2000812F0E945D3C80E10E945D3C1F91089582
:107A30000E94963C803271F0809100018F5F8093AC
:107A40000001853009F00895E0910101F0910201F3
:107A50000995089584E10E945D3C80E10E945D3CAF
:107A60000895DF93CF9300D000D0CDB7DEB7882341
:107A700009F072C034E020E0289A19821A821B8231
:107A80001C8289819A81AB81BC8180529E44A04036
:107A9000B040A0F489819A81AB81BC810196A11D7F
:107AA000B11D89839A83AB83BC8389819A81AB8121
:107AB000BC8180529E44A040B04060F32898198257
:107AC0001A821B821C8289819A81AB81BC81805879
:107AD0009843A140B040A0F489819A81AB81BC81D8
:107AE0000196A11DB11D89839A83AB83BC838981D3
:107AF0009A81AB81BC8180589843A140B04060F32B
:107B00002F5F23170CF4B8CF19821A821B821C82B4
:107B100089819A81AB81BC8180549D40A340B04053
:107B2000A0F489819A81AB81BC810196A11DB11D10
:107B300089839A83AB83BC8389819A81AB81BC8121
:107B400080549D40A340B04060F30F900F900F9081
:107B50000F90CF91DF910895382F18160CF48BCF2A
:107B6000D3CFEF92FF920F931F93CF93DF93000039
:107B700094B714BE80916000886180936000109279
:107B8000600091FFA0C180E48093C4001092C50002
:107B900088E18093C10086E08093C2005098589A93
:107BA000209A84E00E94313D81E00E94313D0E9494
:107BB000963C8033B9F18133C1F1803409F455C06A
:107BC000813409F45BC0823409F46AC0853409F455
:107BD0006DC0803539F1813509F444C1823511F128
:107BE000853509F469C0863509F471C0843609F415
:107BF000CEC0843709F472C0853709F449C186378D
:107C000009F44AC0809100018F5F809300018530A4
:107C100071F6E0910101F091020109950E94963CF4
:107C2000803349F60E94183DC2CF0E94963C8032B4
:107C300049F784E10E945D3C81E40E945D3C86E559
:107C40000E945D3C82E50E945D3C80E20E945D3CBA
:107C500089E40E945D3C83E50E945D3C80E50E94D2
:107C60005D3C80E10E945D3CA2CF0E94963C86383C
:107C7000C8F20E94963C0E94183D99CF0E94963C03
:107C8000803809F401C1813809F4FAC0823809F456
:107C9000F3C0883909F4ECC080E00E94F73C87CF3C
:107CA00084E10E94E93C0E94183D81CF85E00E945A
:107CB000E93C0E94183D7BCF0E94963C80930301D3
:107CC0000E94963C809304010E94183D70CF84E08E
:107CD0000E94E93C80E00E94F73C69CF0E94963CFC
:107CE000809386010E94963C809385010E94963C79
:107CF000853409F4E2C0809188018E7F80938801E9
:107D00008091030190910401880F991F90930401C1
:107D1000809303010E94963C803209F048CF84E1B1
:107D20000E945D3C8091850190918601009709F445
:107D3000C0C000E010E0E0910301F09104010DC02B
:107D400021FF2AC13196F0930401E09303010F5FF4
:107D50001F4F0817190708F0ACC02091880120FFB9
:107D6000EFCFF999FECFF2BDE1BDF89A80B50E9440
:107D70005D3CE0910301F09104013196F093040120
:107D8000E09303018091850190918601E0CF0E94EC
:107D9000963C809386010E94963C80938501809159
:107DA00088018E7F809388010E94963C853429F457
:107DB0008091880181608093880165E0E62E61E012
:107DC000F62EF701119281E0E534F807D9F780919A
:107DD000850190918601892B89F000E010E00E94D6
:107DE000963CF801EB5FFE4F80830F5F1F4F809141
:107DF0008501909186010817190788F30E94963C27
:107E0000803209F0FFCE8091880180FF62C06091CE
:107E100085017091860161157105E9F040910301BA
:107E2000509104019A01FB01EB5FFE4FF999FECFDF
:107E300032BD21BDD7018D917D0180BDFA9AF99A9D
:107E40002F5F3F4FAE17BF0789F7460F571F50935D
:107E500004014093030184E10E945D3C80E10E94A3
:107E60005D3CA5CE0E94183D88E080936000FFCF66
:107E700083E00E94F73C9BCE80E10E94F73C97CEC6
:107E800081E00E94F73C93CE82E00E94F73C8FCEC7
:107E90000E94963C803209F0B5CE84E10E945D3CA0
:107EA0008EE10E945D3C85E90E945D3C88E00E9475
:107EB0005D3C80E10E945D3C7ACE809188018160CA
:107EC0008093880127CFE0910101F091020109958B
:107ED0005ACE8091030190910401880F991F9093CD
:107EE0000401809303018091850180FF09C0809186
:107EF000850190918601019690938601809385017A
:107F0000F999FECF1127E0910301F0910401C5E03A
:107F1000D1E08091850190918601103091F400911B
:107F2000570001700130D9F303E000935700E89542
:107F30000091570001700130D9F301E1009357001F
:107F4000E895099019900091570001700130D9F31C
:107F500001E000935700E8951395103498F011272D
:107F60000091570001700130D9F305E000935700EC
:107F7000E8950091570001700130D9F301E10093B9
:107F80005700E8953296029709F0C7CF103011F0EC
:107F90000296E5CF11245FCF84910E945D3C8091D1
:107FA000850190918601E0910301F0910401CACE10
:107FB000F894FFCFFFFFFFFFFFFFFFFFFFFFFFFF73
:107FC000FFFFFFFFFFFFFFFFFFFFFFFFFFFFFFFFC1
:107FD000FFFFFFFFFFFFFFFFFFFFFFFFFFFFFFFFB1
:107FE000FFFFFFFFFFFFFFFFFFFFFFFFFFFFFFFFA1
:107FF000FFFFFFFFFFFFFFFFFFFFFFFFFFFFFFFF91
:00000001FF
